{
  "_format": "hh-sol-artifact-1",
  "contractName": "ActionExecutor",
  "sourceName": "contracts/ActionExecutor.sol",
  "abi": [
    {
      "inputs": [
        {
          "internalType": "address",
          "name": "admin",
          "type": "address"
        },
        {
          "internalType": "address",
          "name": "_registry",
          "type": "address"
        },
        {
          "internalType": "address",
          "name": "_escrow",
          "type": "address"
        }
      ],
      "stateMutability": "nonpayable",
      "type": "constructor"
    },
    {
      "anonymous": false,
      "inputs": [
        {
          "indexed": true,
          "internalType": "bytes32",
          "name": "role",
          "type": "bytes32"
        },
        {
          "indexed": true,
          "internalType": "bytes32",
          "name": "previousAdminRole",
          "type": "bytes32"
        },
        {
          "indexed": true,
          "internalType": "bytes32",
          "name": "newAdminRole",
          "type": "bytes32"
        }
      ],
      "name": "RoleAdminChanged",
      "type": "event"
    },
    {
      "anonymous": false,
      "inputs": [
        {
          "indexed": true,
          "internalType": "bytes32",
          "name": "role",
          "type": "bytes32"
        },
        {
          "indexed": true,
          "internalType": "address",
          "name": "account",
          "type": "address"
        },
        {
          "indexed": true,
          "internalType": "address",
          "name": "sender",
          "type": "address"
        }
      ],
      "name": "RoleGranted",
      "type": "event"
    },
    {
      "anonymous": false,
      "inputs": [
        {
          "indexed": true,
          "internalType": "bytes32",
          "name": "role",
          "type": "bytes32"
        },
        {
          "indexed": true,
          "internalType": "address",
          "name": "account",
          "type": "address"
        },
        {
          "indexed": true,
          "internalType": "address",
          "name": "sender",
          "type": "address"
        }
      ],
      "name": "RoleRevoked",
      "type": "event"
    },
    {
      "anonymous": false,
      "inputs": [
        {
          "indexed": true,
          "internalType": "uint256",
          "name": "workflowId",
          "type": "uint256"
        },
        {
          "indexed": true,
          "internalType": "address",
          "name": "user",
          "type": "address"
        },
        {
          "indexed": false,
          "internalType": "bool",
          "name": "success",
          "type": "bool"
        },
        {
          "indexed": false,
          "internalType": "uint256",
          "name": "gasUsed",
          "type": "uint256"
        },
        {
          "indexed": false,
          "internalType": "bytes",
          "name": "result",
          "type": "bytes"
        }
      ],
      "name": "WorkflowExecuted",
      "type": "event"
    },
    {
      "inputs": [],
      "name": "ADMIN_ROLE",
      "outputs": [
        {
          "internalType": "bytes32",
          "name": "",
          "type": "bytes32"
        }
      ],
      "stateMutability": "view",
      "type": "function"
    },
    {
      "inputs": [],
      "name": "DEFAULT_ADMIN_ROLE",
      "outputs": [
        {
          "internalType": "bytes32",
          "name": "",
          "type": "bytes32"
        }
      ],
      "stateMutability": "view",
      "type": "function"
    },
    {
      "inputs": [],
      "name": "WORKER_ROLE",
      "outputs": [
        {
          "internalType": "bytes32",
          "name": "",
          "type": "bytes32"
        }
      ],
      "stateMutability": "view",
      "type": "function"
    },
    {
      "inputs": [],
      "name": "escrow",
      "outputs": [
        {
          "internalType": "contract FeeEscrow",
          "name": "",
          "type": "address"
        }
      ],
      "stateMutability": "view",
      "type": "function"
    },
    {
      "inputs": [
        {
          "internalType": "uint256",
          "name": "workflowId",
          "type": "uint256"
        },
        {
          "internalType": "bytes",
          "name": "actionData",
          "type": "bytes"
        },
        {
          "internalType": "uint256",
          "name": "newNextRun",
          "type": "uint256"
        },
        {
          "internalType": "address",
          "name": "userToCharge",
          "type": "address"
        },
        {
          "internalType": "uint256",
          "name": "gasToCharge",
          "type": "uint256"
        }
      ],
      "name": "executeWorkflow",
      "outputs": [],
      "stateMutability": "nonpayable",
      "type": "function"
    },
    {
      "inputs": [
        {
          "internalType": "bytes32",
          "name": "role",
          "type": "bytes32"
        }
      ],
      "name": "getRoleAdmin",
      "outputs": [
        {
          "internalType": "bytes32",
          "name": "",
          "type": "bytes32"
        }
      ],
      "stateMutability": "view",
      "type": "function"
    },
    {
      "inputs": [
        {
          "internalType": "bytes32",
          "name": "role",
          "type": "bytes32"
        },
        {
          "internalType": "address",
          "name": "account",
          "type": "address"
        }
      ],
      "name": "grantRole",
      "outputs": [],
      "stateMutability": "nonpayable",
      "type": "function"
    },
    {
      "inputs": [
        {
          "internalType": "bytes32",
          "name": "role",
          "type": "bytes32"
        },
        {
          "internalType": "address",
          "name": "account",
          "type": "address"
        }
      ],
      "name": "hasRole",
      "outputs": [
        {
          "internalType": "bool",
          "name": "",
          "type": "bool"
        }
      ],
      "stateMutability": "view",
      "type": "function"
    },
    {
      "inputs": [],
      "name": "registry",
      "outputs": [
        {
          "internalType": "contract WorkflowRegistry",
          "name": "",
          "type": "address"
        }
      ],
      "stateMutability": "view",
      "type": "function"
    },
    {
      "inputs": [
        {
          "internalType": "bytes32",
          "name": "role",
          "type": "bytes32"
        },
        {
          "internalType": "address",
          "name": "account",
          "type": "address"
        }
      ],
      "name": "renounceRole",
      "outputs": [],
      "stateMutability": "nonpayable",
      "type": "function"
    },
    {
      "inputs": [
        {
          "internalType": "bytes32",
          "name": "role",
          "type": "bytes32"
        },
        {
          "internalType": "address",
          "name": "account",
          "type": "address"
        }
      ],
      "name": "revokeRole",
      "outputs": [],
      "stateMutability": "nonpayable",
      "type": "function"
    },
    {
      "inputs": [
        {
          "internalType": "bytes4",
          "name": "interfaceId",
          "type": "bytes4"
        }
      ],
      "name": "supportsInterface",
      "outputs": [
        {
          "internalType": "bool",
          "name": "",
          "type": "bool"
        }
      ],
      "stateMutability": "view",
      "type": "function"
    },
    {
      "stateMutability": "payable",
      "type": "receive"
    }
  ],
  "bytecode": "0x60806040523480156200001157600080fd5b506040516200116b3803806200116b833981016040819052620000349162000162565b6001805562000045600084620000a4565b620000717fa49807205ce4d355092ef5a8a18f56e8913cf4a201fbe287825b095693c2177584620000a4565b600280546001600160a01b039384166001600160a01b0319918216179091556003805492909316911617905550620001ac565b6000828152602081815260408083206001600160a01b038516845290915290205460ff1662000141576000828152602081815260408083206001600160a01b03851684529091529020805460ff19166001179055620001003390565b6001600160a01b0316816001600160a01b0316837f2f8788117e7eff1d82e926ec794901d17c78024a50270940304540a733656f0d60405160405180910390a45b5050565b80516001600160a01b03811681146200015d57600080fd5b919050565b6000806000606084860312156200017857600080fd5b620001838462000145565b9250620001936020850162000145565b9150620001a36040850162000145565b90509250925092565b610faf80620001bc6000396000f3fe6080604052600436106100ab5760003560e01c80637b103999116100645780637b103999146101d457806391d148541461020c5780639da4a0e11461022c578063a217fddf1461024c578063d547741f14610261578063e2fdcc171461028157600080fd5b806301ffc9a7146100b7578063248a9ca3146100ec5780632f2ff15d1461012a57806336568abe1461014c578063634252dc1461016c57806375b238fc146101a057600080fd5b366100b257005b600080fd5b3480156100c357600080fd5b506100d76100d2366004610b27565b6102a1565b60405190151581526020015b60405180910390f35b3480156100f857600080fd5b5061011c610107366004610b51565b60009081526020819052604090206001015490565b6040519081526020016100e3565b34801561013657600080fd5b5061014a610145366004610b7f565b6102d8565b005b34801561015857600080fd5b5061014a610167366004610b7f565b610302565b34801561017857600080fd5b5061011c7ff1b411d6abb365480ac902cc153c45e9ded5847a2265ce6d01945d253edb6bc781565b3480156101ac57600080fd5b5061011c7fa49807205ce4d355092ef5a8a18f56e8913cf4a201fbe287825b095693c2177581565b3480156101e057600080fd5b506002546101f4906001600160a01b031681565b6040516001600160a01b0390911681526020016100e3565b34801561021857600080fd5b506100d7610227366004610b7f565b610385565b34801561023857600080fd5b5061014a610247366004610baf565b6103ae565b34801561025857600080fd5b5061011c600081565b34801561026d57600080fd5b5061014a61027c366004610b7f565b610525565b34801561028d57600080fd5b506003546101f4906001600160a01b031681565b60006001600160e01b03198216637965db0b60e01b14806102d257506301ffc9a760e01b6001600160e01b03198316145b92915050565b6000828152602081905260409020600101546102f38161054a565b6102fd8383610557565b505050565b6001600160a01b03811633146103775760405162461bcd60e51b815260206004820152602f60248201527f416363657373436f6e74726f6c3a2063616e206f6e6c792072656e6f756e636560448201526e103937b632b9903337b91039b2b63360891b60648201526084015b60405180910390fd5b61038182826105db565b5050565b6000918252602082815260408084206001600160a01b0393909316845291905290205460ff1690565b6103b6610640565b7ff1b411d6abb365480ac902cc153c45e9ded5847a2265ce6d01945d253edb6bc76103e08161054a565b811561044d5760035460405163d36aa6f160e01b81526001600160a01b038581166004830152602482018590529091169063d36aa6f190604401600060405180830381600087803b15801561043457600080fd5b505af1158015610448573d6000803e3d6000fd5b505050505b6000606061045b8888610699565b60025460405163fcc496fb60e01b8152600481018d905260016024820152604481018a90529294509092506001600160a01b03169063fcc496fb90606401600060405180830381600087803b1580156104b357600080fd5b505af11580156104c7573d6000803e3d6000fd5b50505050846001600160a01b0316897fa5527452145b14f7de8d63a6b7a61353a155b8c9db9464b71e8dda99a5f5e20484878560405161050993929190610ca2565b60405180910390a350505061051d60018055565b505050505050565b6000828152602081905260409020600101546105408161054a565b6102fd83836105db565b6105548133610769565b50565b6105618282610385565b610381576000828152602081815260408083206001600160a01b03851684529091529020805460ff191660011790556105973390565b6001600160a01b0316816001600160a01b0316837f2f8788117e7eff1d82e926ec794901d17c78024a50270940304540a733656f0d60405160405180910390a45050565b6105e58282610385565b15610381576000828152602081815260408083206001600160a01b0385168085529252808320805460ff1916905551339285917ff6391f5c32d9c69d2a47ea670b442974b53935d1edc7fd64eb21e047a839171b9190a45050565b6002600154036106925760405162461bcd60e51b815260206004820152601f60248201527f5265656e7472616e637947756172643a207265656e7472616e742063616c6c00604482015260640161036e565b6002600155565b600060606000848460008181106106b2576106b2610ccc565b919091013560f81c91505060018190036106e5576106db6106d68560018189610ce2565b6107c2565b9250925050610762565b8060ff16600203610705576106db6107008560018189610ce2565b61083b565b8060ff16600303610725576106db6107208560018189610ce2565b6108ea565b60405162461bcd60e51b8152602060048201526012602482015271496e76616c696420616374696f6e5479706560701b604482015260640161036e565b9250929050565b6107738282610385565b6103815761078081610972565b61078b836020610984565b60405160200161079c929190610d0c565b60408051601f198184030181529082905262461bcd60e51b825261036e91600401610d81565b6000606081806107d485870187610d94565b91509150600080836001600160a01b03168360405160006040518083038185875af1925050503d8060008114610826576040519150601f19603f3d011682016040523d82523d6000602084013e61082b565b606091505b5090999098509650505050505050565b6000606081808061084e86880188610dc0565b60405163a9059cbb60e01b81526001600160a01b03808416600483015260248201839052939650919450925060009185169063a9059cbb906044016020604051808303816000875af11580156108a8573d6000803e3d6000fd5b505050506040513d601f19601f820116820180604052508101906108cc9190610e01565b60408051602081019091526000815290999098509650505050505050565b600060608180806108fd86880188610e39565b925092509250600080846001600160a01b0316848460405161091f9190610f06565b60006040518083038185875af1925050503d806000811461095c576040519150601f19603f3d011682016040523d82523d6000602084013e610961565b606091505b50909a909950975050505050505050565b60606102d26001600160a01b03831660145b60606000610993836002610f38565b61099e906002610f4f565b67ffffffffffffffff8111156109b6576109b6610e23565b6040519080825280601f01601f1916602001820160405280156109e0576020820181803683370190505b509050600360fc1b816000815181106109fb576109fb610ccc565b60200101906001600160f81b031916908160001a905350600f60fb1b81600181518110610a2a57610a2a610ccc565b60200101906001600160f81b031916908160001a9053506000610a4e846002610f38565b610a59906001610f4f565b90505b6001811115610ad1576f181899199a1a9b1b9c1cb0b131b232b360811b85600f1660108110610a8d57610a8d610ccc565b1a60f81b828281518110610aa357610aa3610ccc565b60200101906001600160f81b031916908160001a90535060049490941c93610aca81610f62565b9050610a5c565b508315610b205760405162461bcd60e51b815260206004820181905260248201527f537472696e67733a20686578206c656e67746820696e73756666696369656e74604482015260640161036e565b9392505050565b600060208284031215610b3957600080fd5b81356001600160e01b031981168114610b2057600080fd5b600060208284031215610b6357600080fd5b5035919050565b6001600160a01b038116811461055457600080fd5b60008060408385031215610b9257600080fd5b823591506020830135610ba481610b6a565b809150509250929050565b60008060008060008060a08789031215610bc857600080fd5b86359550602087013567ffffffffffffffff80821115610be757600080fd5b818901915089601f830112610bfb57600080fd5b813581811115610c0a57600080fd5b8a6020828501011115610c1c57600080fd5b602083019750809650505050604087013592506060870135610c3d81610b6a565b80925050608087013590509295509295509295565b60005b83811015610c6d578181015183820152602001610c55565b50506000910152565b60008151808452610c8e816020860160208601610c52565b601f01601f19169290920160200192915050565b8315158152826020820152606060408201526000610cc36060830184610c76565b95945050505050565b634e487b7160e01b600052603260045260246000fd5b60008085851115610cf257600080fd5b83861115610cff57600080fd5b5050820193919092039150565b7f416363657373436f6e74726f6c3a206163636f756e7420000000000000000000815260008351610d44816017850160208801610c52565b7001034b99036b4b9b9b4b733903937b6329607d1b6017918401918201528351610d75816028840160208801610c52565b01602801949350505050565b602081526000610b206020830184610c76565b60008060408385031215610da757600080fd5b8235610db281610b6a565b946020939093013593505050565b600080600060608486031215610dd557600080fd5b8335610de081610b6a565b92506020840135610df081610b6a565b929592945050506040919091013590565b600060208284031215610e1357600080fd5b81518015158114610b2057600080fd5b634e487b7160e01b600052604160045260246000fd5b600080600060608486031215610e4e57600080fd5b8335610e5981610b6a565b925060208401359150604084013567ffffffffffffffff80821115610e7d57600080fd5b818601915086601f830112610e9157600080fd5b813581811115610ea357610ea3610e23565b604051601f8201601f19908116603f01168101908382118183101715610ecb57610ecb610e23565b81604052828152896020848701011115610ee457600080fd5b8260208601602083013760006020848301015280955050505050509250925092565b60008251610f18818460208701610c52565b9190910192915050565b634e487b7160e01b600052601160045260246000fd5b80820281158282048414176102d2576102d2610f22565b808201808211156102d2576102d2610f22565b600081610f7157610f71610f22565b50600019019056fea264697066735822122076ff814e4c9ee1037a3cf16e84416f44849035195a39c35558455f09aeaa9de664736f6c63430008130033",
  "linkReferences": {},
  "deployedLinkReferences": {}
}