{
  "_format": "hh-sol-artifact-1",
  "contractName": "FeeEscrow",
  "sourceName": "contracts/FeeEscrow.sol",
  "abi": [
    {
      "inputs": [
        {
          "internalType": "address",
          "name": "admin",
          "type": "address"
        }
      ],
      "stateMutability": "nonpayable",
      "type": "constructor"
    },
    {
      "anonymous": false,
      "inputs": [
        {
          "indexed": true,
          "internalType": "address",
          "name": "admin",
          "type": "address"
        },
        {
          "indexed": false,
          "internalType": "uint256",
          "name": "amount",
          "type": "uint256"
        }
      ],
      "name": "EmergencyWithdraw",
      "type": "event"
    },
    {
      "anonymous": false,
      "inputs": [
        {
          "indexed": true,
          "internalType": "address",
          "name": "user",
          "type": "address"
        },
        {
          "indexed": false,
          "internalType": "uint256",
          "name": "amount",
          "type": "uint256"
        },
        {
          "indexed": false,
          "internalType": "address",
          "name": "worker",
          "type": "address"
        }
      ],
      "name": "GasCharged",
      "type": "event"
    },
    {
      "anonymous": false,
      "inputs": [
        {
          "indexed": true,
          "internalType": "address",
          "name": "user",
          "type": "address"
        },
        {
          "indexed": false,
          "internalType": "uint256",
          "name": "amount",
          "type": "uint256"
        }
      ],
      "name": "GasDeposited",
      "type": "event"
    },
    {
      "anonymous": false,
      "inputs": [
        {
          "indexed": true,
          "internalType": "address",
          "name": "user",
          "type": "address"
        },
        {
          "indexed": false,
          "internalType": "uint256",
          "name": "amount",
          "type": "uint256"
        }
      ],
      "name": "GasWithdrawn",
      "type": "event"
    },
    {
      "anonymous": false,
      "inputs": [
        {
          "indexed": true,
          "internalType": "bytes32",
          "name": "role",
          "type": "bytes32"
        },
        {
          "indexed": true,
          "internalType": "bytes32",
          "name": "previousAdminRole",
          "type": "bytes32"
        },
        {
          "indexed": true,
          "internalType": "bytes32",
          "name": "newAdminRole",
          "type": "bytes32"
        }
      ],
      "name": "RoleAdminChanged",
      "type": "event"
    },
    {
      "anonymous": false,
      "inputs": [
        {
          "indexed": true,
          "internalType": "bytes32",
          "name": "role",
          "type": "bytes32"
        },
        {
          "indexed": true,
          "internalType": "address",
          "name": "account",
          "type": "address"
        },
        {
          "indexed": true,
          "internalType": "address",
          "name": "sender",
          "type": "address"
        }
      ],
      "name": "RoleGranted",
      "type": "event"
    },
    {
      "anonymous": false,
      "inputs": [
        {
          "indexed": true,
          "internalType": "bytes32",
          "name": "role",
          "type": "bytes32"
        },
        {
          "indexed": true,
          "internalType": "address",
          "name": "account",
          "type": "address"
        },
        {
          "indexed": true,
          "internalType": "address",
          "name": "sender",
          "type": "address"
        }
      ],
      "name": "RoleRevoked",
      "type": "event"
    },
    {
      "inputs": [],
      "name": "ADMIN_ROLE",
      "outputs": [
        {
          "internalType": "bytes32",
          "name": "",
          "type": "bytes32"
        }
      ],
      "stateMutability": "view",
      "type": "function"
    },
    {
      "inputs": [],
      "name": "DEFAULT_ADMIN_ROLE",
      "outputs": [
        {
          "internalType": "bytes32",
          "name": "",
          "type": "bytes32"
        }
      ],
      "stateMutability": "view",
      "type": "function"
    },
    {
      "inputs": [],
      "name": "WORKER_ROLE",
      "outputs": [
        {
          "internalType": "bytes32",
          "name": "",
          "type": "bytes32"
        }
      ],
      "stateMutability": "view",
      "type": "function"
    },
    {
      "inputs": [
        {
          "internalType": "address",
          "name": "",
          "type": "address"
        }
      ],
      "name": "balances",
      "outputs": [
        {
          "internalType": "uint256",
          "name": "",
          "type": "uint256"
        }
      ],
      "stateMutability": "view",
      "type": "function"
    },
    {
      "inputs": [
        {
          "internalType": "address",
          "name": "user",
          "type": "address"
        },
        {
          "internalType": "uint256",
          "name": "amount",
          "type": "uint256"
        }
      ],
      "name": "chargeGas",
      "outputs": [],
      "stateMutability": "nonpayable",
      "type": "function"
    },
    {
      "inputs": [],
      "name": "depositGas",
      "outputs": [],
      "stateMutability": "payable",
      "type": "function"
    },
    {
      "inputs": [
        {
          "internalType": "uint256",
          "name": "amount",
          "type": "uint256"
        }
      ],
      "name": "emergencyWithdraw",
      "outputs": [],
      "stateMutability": "nonpayable",
      "type": "function"
    },
    {
      "inputs": [
        {
          "internalType": "bytes32",
          "name": "role",
          "type": "bytes32"
        }
      ],
      "name": "getRoleAdmin",
      "outputs": [
        {
          "internalType": "bytes32",
          "name": "",
          "type": "bytes32"
        }
      ],
      "stateMutability": "view",
      "type": "function"
    },
    {
      "inputs": [
        {
          "internalType": "bytes32",
          "name": "role",
          "type": "bytes32"
        },
        {
          "internalType": "address",
          "name": "account",
          "type": "address"
        }
      ],
      "name": "grantRole",
      "outputs": [],
      "stateMutability": "nonpayable",
      "type": "function"
    },
    {
      "inputs": [
        {
          "internalType": "bytes32",
          "name": "role",
          "type": "bytes32"
        },
        {
          "internalType": "address",
          "name": "account",
          "type": "address"
        }
      ],
      "name": "hasRole",
      "outputs": [
        {
          "internalType": "bool",
          "name": "",
          "type": "bool"
        }
      ],
      "stateMutability": "view",
      "type": "function"
    },
    {
      "inputs": [
        {
          "internalType": "bytes32",
          "name": "role",
          "type": "bytes32"
        },
        {
          "internalType": "address",
          "name": "account",
          "type": "address"
        }
      ],
      "name": "renounceRole",
      "outputs": [],
      "stateMutability": "nonpayable",
      "type": "function"
    },
    {
      "inputs": [
        {
          "internalType": "bytes32",
          "name": "role",
          "type": "bytes32"
        },
        {
          "internalType": "address",
          "name": "account",
          "type": "address"
        }
      ],
      "name": "revokeRole",
      "outputs": [],
      "stateMutability": "nonpayable",
      "type": "function"
    },
    {
      "inputs": [
        {
          "internalType": "bytes4",
          "name": "interfaceId",
          "type": "bytes4"
        }
      ],
      "name": "supportsInterface",
      "outputs": [
        {
          "internalType": "bool",
          "name": "",
          "type": "bool"
        }
      ],
      "stateMutability": "view",
      "type": "function"
    },
    {
      "inputs": [
        {
          "internalType": "uint256",
          "name": "amount",
          "type": "uint256"
        }
      ],
      "name": "withdrawGas",
      "outputs": [],
      "stateMutability": "nonpayable",
      "type": "function"
    }
  ],
  "bytecode": "0x608060405234801561001057600080fd5b50604051610e8d380380610e8d83398101604081905261002f9161010d565b6001805561003e60008261006e565b6100687fa49807205ce4d355092ef5a8a18f56e8913cf4a201fbe287825b095693c217758261006e565b5061013d565b6000828152602081815260408083206001600160a01b038516845290915290205460ff16610109576000828152602081815260408083206001600160a01b03851684529091529020805460ff191660011790556100c83390565b6001600160a01b0316816001600160a01b0316837f2f8788117e7eff1d82e926ec794901d17c78024a50270940304540a733656f0d60405160405180910390a45b5050565b60006020828403121561011f57600080fd5b81516001600160a01b038116811461013657600080fd5b9392505050565b610d418061014c6000396000f3fe6080604052600436106100dd5760003560e01c806375b238fc1161007f578063a217fddf11610059578063a217fddf1461028c578063ae9bb692146102a1578063d36aa6f1146102a9578063d547741f146102c957600080fd5b806375b238fc14610218578063916575441461024c57806391d148541461026c57600080fd5b80632f2ff15d116100bb5780632f2ff15d1461018257806336568abe146101a45780635312ea8e146101c4578063634252dc146101e457600080fd5b806301ffc9a7146100e2578063248a9ca31461011757806327e235e314610155575b600080fd5b3480156100ee57600080fd5b506101026100fd366004610ad9565b6102e9565b60405190151581526020015b60405180910390f35b34801561012357600080fd5b50610147610132366004610b03565b60009081526020819052604090206001015490565b60405190815260200161010e565b34801561016157600080fd5b50610147610170366004610b38565b60026020526000908152604090205481565b34801561018e57600080fd5b506101a261019d366004610b53565b610320565b005b3480156101b057600080fd5b506101a26101bf366004610b53565b61034a565b3480156101d057600080fd5b506101a26101df366004610b03565b6103cd565b3480156101f057600080fd5b506101477ff1b411d6abb365480ac902cc153c45e9ded5847a2265ce6d01945d253edb6bc781565b34801561022457600080fd5b506101477fa49807205ce4d355092ef5a8a18f56e8913cf4a201fbe287825b095693c2177581565b34801561025857600080fd5b506101a2610267366004610b03565b61045e565b34801561027857600080fd5b50610102610287366004610b53565b61054d565b34801561029857600080fd5b50610147600081565b6101a2610576565b3480156102b557600080fd5b506101a26102c4366004610b7f565b610621565b3480156102d557600080fd5b506101a26102e4366004610b53565b61075a565b60006001600160e01b03198216637965db0b60e01b148061031a57506301ffc9a760e01b6001600160e01b03198316145b92915050565b60008281526020819052604090206001015461033b8161077f565b6103458383610789565b505050565b6001600160a01b03811633146103bf5760405162461bcd60e51b815260206004820152602f60248201527f416363657373436f6e74726f6c3a2063616e206f6e6c792072656e6f756e636560448201526e103937b632b9903337b91039b2b63360891b60648201526084015b60405180910390fd5b6103c9828261080d565b5050565b7fa49807205ce4d355092ef5a8a18f56e8913cf4a201fbe287825b095693c217756103f78161077f565b604051339083156108fc029084906000818181858888f19350505050158015610424573d6000803e3d6000fd5b5060405182815233907f5fafa99d0643513820be26656b45130b01e1c03062e1266bf36f88cbd3bd96959060200160405180910390a25050565b610466610872565b336000908152600260205260409020548111156104ba5760405162461bcd60e51b81526020600482015260126024820152714e6f7420656e6f7567682062616c616e636560701b60448201526064016103b6565b33600090815260026020526040812080548392906104d9908490610bbf565b9091555050604051339082156108fc029083906000818181858888f1935050505015801561050b573d6000803e3d6000fd5b5060405181815233907fb72c343bf59a3e8780aed75e2e61cdd3faab698b9a1c6f9e46426ba5e0e28e139060200160405180910390a261054a60018055565b50565b6000918252602082815260408084206001600160a01b0393909316845291905290205460ff1690565b61057e610872565b600034116105bd5760405162461bcd60e51b815260206004820152600c60248201526b16995c9bc819195c1bdcda5d60a21b60448201526064016103b6565b33600090815260026020526040812080543492906105dc908490610bd2565b909155505060405134815233907f1dbbf474736d6415d6a265fabee708fe6e988f6fd0c9d870ded36cab380898dd9060200160405180910390a261061f60018055565b565b610629610872565b7ff1b411d6abb365480ac902cc153c45e9ded5847a2265ce6d01945d253edb6bc76106538161077f565b6001600160a01b0383166000908152600260205260409020548211156106b25760405162461bcd60e51b8152602060048201526014602482015273496e73756666696369656e742062616c616e636560601b60448201526064016103b6565b6001600160a01b038316600090815260026020526040812080548492906106da908490610bbf565b9091555050604051339083156108fc029084906000818181858888f1935050505015801561070c573d6000803e3d6000fd5b50604080518381523360208201526001600160a01b038516917ffa69e0f70c7c8b92d854b54f26c3180bb8c5b2cd6fe937c56758c6b8ee51c5a5910160405180910390a2506103c960018055565b6000828152602081905260409020600101546107758161077f565b610345838361080d565b61054a81336108cb565b610793828261054d565b6103c9576000828152602081815260408083206001600160a01b03851684529091529020805460ff191660011790556107c93390565b6001600160a01b0316816001600160a01b0316837f2f8788117e7eff1d82e926ec794901d17c78024a50270940304540a733656f0d60405160405180910390a45050565b610817828261054d565b156103c9576000828152602081815260408083206001600160a01b0385168085529252808320805460ff1916905551339285917ff6391f5c32d9c69d2a47ea670b442974b53935d1edc7fd64eb21e047a839171b9190a45050565b6002600154036108c45760405162461bcd60e51b815260206004820152601f60248201527f5265656e7472616e637947756172643a207265656e7472616e742063616c6c0060448201526064016103b6565b6002600155565b6108d5828261054d565b6103c9576108e281610924565b6108ed836020610936565b6040516020016108fe929190610c09565b60408051601f198184030181529082905262461bcd60e51b82526103b691600401610c7e565b606061031a6001600160a01b03831660145b60606000610945836002610cb1565b610950906002610bd2565b67ffffffffffffffff81111561096857610968610cc8565b6040519080825280601f01601f191660200182016040528015610992576020820181803683370190505b509050600360fc1b816000815181106109ad576109ad610cde565b60200101906001600160f81b031916908160001a905350600f60fb1b816001815181106109dc576109dc610cde565b60200101906001600160f81b031916908160001a9053506000610a00846002610cb1565b610a0b906001610bd2565b90505b6001811115610a83576f181899199a1a9b1b9c1cb0b131b232b360811b85600f1660108110610a3f57610a3f610cde565b1a60f81b828281518110610a5557610a55610cde565b60200101906001600160f81b031916908160001a90535060049490941c93610a7c81610cf4565b9050610a0e565b508315610ad25760405162461bcd60e51b815260206004820181905260248201527f537472696e67733a20686578206c656e67746820696e73756666696369656e7460448201526064016103b6565b9392505050565b600060208284031215610aeb57600080fd5b81356001600160e01b031981168114610ad257600080fd5b600060208284031215610b1557600080fd5b5035919050565b80356001600160a01b0381168114610b3357600080fd5b919050565b600060208284031215610b4a57600080fd5b610ad282610b1c565b60008060408385031215610b6657600080fd5b82359150610b7660208401610b1c565b90509250929050565b60008060408385031215610b9257600080fd5b610b9b83610b1c565b946020939093013593505050565b634e487b7160e01b600052601160045260246000fd5b8181038181111561031a5761031a610ba9565b8082018082111561031a5761031a610ba9565b60005b83811015610c00578181015183820152602001610be8565b50506000910152565b7f416363657373436f6e74726f6c3a206163636f756e7420000000000000000000815260008351610c41816017850160208801610be5565b7001034b99036b4b9b9b4b733903937b6329607d1b6017918401918201528351610c72816028840160208801610be5565b01602801949350505050565b6020815260008251806020840152610c9d816040850160208701610be5565b601f01601f19169190910160400192915050565b808202811582820484141761031a5761031a610ba9565b634e487b7160e01b600052604160045260246000fd5b634e487b7160e01b600052603260045260246000fd5b600081610d0357610d03610ba9565b50600019019056fea26469706673582212203009911ff7807865c4eaca2c49e5bff0ec601eab735680d8f7052ed129cbcd4c64736f6c63430008130033",
  "linkReferences": {},
  "deployedLinkReferences": {}
}