{
  "_format": "hh-sol-artifact-1",
  "contractName": "WorkflowRegistry",
  "sourceName": "contracts/WorkflowRegistry.sol",
  "abi": [
    {
      "inputs": [
        {
          "internalType": "address",
          "name": "admin",
          "type": "address"
        }
      ],
      "stateMutability": "nonpayable",
      "type": "constructor"
    },
    {
      "inputs": [],
      "name": "InvalidWorkflow",
      "type": "error"
    },
    {
      "inputs": [],
      "name": "NotOwner",
      "type": "error"
    },
    {
      "inputs": [],
      "name": "WorkflowNotFound",
      "type": "error"
    },
    {
      "anonymous": false,
      "inputs": [
        {
          "indexed": true,
          "internalType": "bytes32",
          "name": "role",
          "type": "bytes32"
        },
        {
          "indexed": true,
          "internalType": "bytes32",
          "name": "previousAdminRole",
          "type": "bytes32"
        },
        {
          "indexed": true,
          "internalType": "bytes32",
          "name": "newAdminRole",
          "type": "bytes32"
        }
      ],
      "name": "RoleAdminChanged",
      "type": "event"
    },
    {
      "anonymous": false,
      "inputs": [
        {
          "indexed": true,
          "internalType": "bytes32",
          "name": "role",
          "type": "bytes32"
        },
        {
          "indexed": true,
          "internalType": "address",
          "name": "account",
          "type": "address"
        },
        {
          "indexed": true,
          "internalType": "address",
          "name": "sender",
          "type": "address"
        }
      ],
      "name": "RoleGranted",
      "type": "event"
    },
    {
      "anonymous": false,
      "inputs": [
        {
          "indexed": true,
          "internalType": "bytes32",
          "name": "role",
          "type": "bytes32"
        },
        {
          "indexed": true,
          "internalType": "address",
          "name": "account",
          "type": "address"
        },
        {
          "indexed": true,
          "internalType": "address",
          "name": "sender",
          "type": "address"
        }
      ],
      "name": "RoleRevoked",
      "type": "event"
    },
    {
      "anonymous": false,
      "inputs": [
        {
          "indexed": true,
          "internalType": "uint256",
          "name": "workflowId",
          "type": "uint256"
        },
        {
          "indexed": true,
          "internalType": "address",
          "name": "owner",
          "type": "address"
        }
      ],
      "name": "WorkflowCreated",
      "type": "event"
    },
    {
      "anonymous": false,
      "inputs": [
        {
          "indexed": true,
          "internalType": "uint256",
          "name": "workflowId",
          "type": "uint256"
        }
      ],
      "name": "WorkflowDeleted",
      "type": "event"
    },
    {
      "anonymous": false,
      "inputs": [
        {
          "indexed": true,
          "internalType": "uint256",
          "name": "workflowId",
          "type": "uint256"
        }
      ],
      "name": "WorkflowPaused",
      "type": "event"
    },
    {
      "anonymous": false,
      "inputs": [
        {
          "indexed": true,
          "internalType": "uint256",
          "name": "workflowId",
          "type": "uint256"
        }
      ],
      "name": "WorkflowResumed",
      "type": "event"
    },
    {
      "anonymous": false,
      "inputs": [
        {
          "indexed": true,
          "internalType": "uint256",
          "name": "workflowId",
          "type": "uint256"
        }
      ],
      "name": "WorkflowUpdated",
      "type": "event"
    },
    {
      "inputs": [],
      "name": "DEFAULT_ADMIN_ROLE",
      "outputs": [
        {
          "internalType": "bytes32",
          "name": "",
          "type": "bytes32"
        }
      ],
      "stateMutability": "view",
      "type": "function"
    },
    {
      "inputs": [],
      "name": "PROJECT_ADMIN",
      "outputs": [
        {
          "internalType": "bytes32",
          "name": "",
          "type": "bytes32"
        }
      ],
      "stateMutability": "view",
      "type": "function"
    },
    {
      "inputs": [
        {
          "internalType": "uint256",
          "name": "workflowId",
          "type": "uint256"
        },
        {
          "internalType": "bool",
          "name": "active",
          "type": "bool"
        },
        {
          "internalType": "uint256",
          "name": "nextRun",
          "type": "uint256"
        }
      ],
      "name": "adminSetWorkflow",
      "outputs": [],
      "stateMutability": "nonpayable",
      "type": "function"
    },
    {
      "inputs": [
        {
          "internalType": "uint8",
          "name": "triggerType",
          "type": "uint8"
        },
        {
          "internalType": "bytes",
          "name": "triggerData",
          "type": "bytes"
        },
        {
          "internalType": "uint8",
          "name": "actionType",
          "type": "uint8"
        },
        {
          "internalType": "bytes",
          "name": "actionData",
          "type": "bytes"
        },
        {
          "internalType": "uint256",
          "name": "nextRun",
          "type": "uint256"
        },
        {
          "internalType": "uint256",
          "name": "interval",
          "type": "uint256"
        },
        {
          "internalType": "uint256",
          "name": "gasBudget",
          "type": "uint256"
        }
      ],
      "name": "createWorkflow",
      "outputs": [
        {
          "internalType": "uint256",
          "name": "workflowId",
          "type": "uint256"
        }
      ],
      "stateMutability": "nonpayable",
      "type": "function"
    },
    {
      "inputs": [
        {
          "internalType": "uint256",
          "name": "workflowId",
          "type": "uint256"
        }
      ],
      "name": "deleteWorkflow",
      "outputs": [],
      "stateMutability": "nonpayable",
      "type": "function"
    },
    {
      "inputs": [
        {
          "internalType": "bytes32",
          "name": "role",
          "type": "bytes32"
        }
      ],
      "name": "getRoleAdmin",
      "outputs": [
        {
          "internalType": "bytes32",
          "name": "",
          "type": "bytes32"
        }
      ],
      "stateMutability": "view",
      "type": "function"
    },
    {
      "inputs": [
        {
          "internalType": "uint256",
          "name": "workflowId",
          "type": "uint256"
        }
      ],
      "name": "getWorkflow",
      "outputs": [
        {
          "internalType": "address",
          "name": "owner",
          "type": "address"
        },
        {
          "internalType": "uint8",
          "name": "triggerType",
          "type": "uint8"
        },
        {
          "internalType": "bytes",
          "name": "triggerData",
          "type": "bytes"
        },
        {
          "internalType": "uint8",
          "name": "actionType",
          "type": "uint8"
        },
        {
          "internalType": "bytes",
          "name": "actionData",
          "type": "bytes"
        },
        {
          "internalType": "uint256",
          "name": "nextRun",
          "type": "uint256"
        },
        {
          "internalType": "uint256",
          "name": "interval",
          "type": "uint256"
        },
        {
          "internalType": "bool",
          "name": "active",
          "type": "bool"
        },
        {
          "internalType": "uint256",
          "name": "gasBudget",
          "type": "uint256"
        }
      ],
      "stateMutability": "view",
      "type": "function"
    },
    {
      "inputs": [
        {
          "internalType": "uint256",
          "name": "workflowId",
          "type": "uint256"
        }
      ],
      "name": "getWorkflowMeta",
      "outputs": [
        {
          "internalType": "address",
          "name": "owner",
          "type": "address"
        },
        {
          "internalType": "bool",
          "name": "active",
          "type": "bool"
        },
        {
          "internalType": "uint256",
          "name": "nextRun",
          "type": "uint256"
        }
      ],
      "stateMutability": "view",
      "type": "function"
    },
    {
      "inputs": [
        {
          "internalType": "address",
          "name": "owner",
          "type": "address"
        }
      ],
      "name": "getWorkflowsByOwner",
      "outputs": [
        {
          "internalType": "uint256[]",
          "name": "",
          "type": "uint256[]"
        }
      ],
      "stateMutability": "view",
      "type": "function"
    },
    {
      "inputs": [
        {
          "internalType": "bytes32",
          "name": "role",
          "type": "bytes32"
        },
        {
          "internalType": "address",
          "name": "account",
          "type": "address"
        }
      ],
      "name": "grantRole",
      "outputs": [],
      "stateMutability": "nonpayable",
      "type": "function"
    },
    {
      "inputs": [
        {
          "internalType": "bytes32",
          "name": "role",
          "type": "bytes32"
        },
        {
          "internalType": "address",
          "name": "account",
          "type": "address"
        }
      ],
      "name": "hasRole",
      "outputs": [
        {
          "internalType": "bool",
          "name": "",
          "type": "bool"
        }
      ],
      "stateMutability": "view",
      "type": "function"
    },
    {
      "inputs": [
        {
          "internalType": "uint256",
          "name": "workflowId",
          "type": "uint256"
        }
      ],
      "name": "pauseWorkflow",
      "outputs": [],
      "stateMutability": "nonpayable",
      "type": "function"
    },
    {
      "inputs": [
        {
          "internalType": "bytes32",
          "name": "role",
          "type": "bytes32"
        },
        {
          "internalType": "address",
          "name": "account",
          "type": "address"
        }
      ],
      "name": "renounceRole",
      "outputs": [],
      "stateMutability": "nonpayable",
      "type": "function"
    },
    {
      "inputs": [
        {
          "internalType": "uint256",
          "name": "workflowId",
          "type": "uint256"
        },
        {
          "internalType": "uint256",
          "name": "newNextRun",
          "type": "uint256"
        }
      ],
      "name": "resumeWorkflow",
      "outputs": [],
      "stateMutability": "nonpayable",
      "type": "function"
    },
    {
      "inputs": [
        {
          "internalType": "bytes32",
          "name": "role",
          "type": "bytes32"
        },
        {
          "internalType": "address",
          "name": "account",
          "type": "address"
        }
      ],
      "name": "revokeRole",
      "outputs": [],
      "stateMutability": "nonpayable",
      "type": "function"
    },
    {
      "inputs": [
        {
          "internalType": "bytes4",
          "name": "interfaceId",
          "type": "bytes4"
        }
      ],
      "name": "supportsInterface",
      "outputs": [
        {
          "internalType": "bool",
          "name": "",
          "type": "bool"
        }
      ],
      "stateMutability": "view",
      "type": "function"
    },
    {
      "inputs": [],
      "name": "totalWorkflows",
      "outputs": [
        {
          "internalType": "uint256",
          "name": "",
          "type": "uint256"
        }
      ],
      "stateMutability": "view",
      "type": "function"
    },
    {
      "inputs": [
        {
          "internalType": "uint256",
          "name": "workflowId",
          "type": "uint256"
        },
        {
          "internalType": "bytes",
          "name": "triggerData",
          "type": "bytes"
        },
        {
          "internalType": "bytes",
          "name": "actionData",
          "type": "bytes"
        },
        {
          "internalType": "uint256",
          "name": "nextRun",
          "type": "uint256"
        },
        {
          "internalType": "uint256",
          "name": "interval",
          "type": "uint256"
        },
        {
          "internalType": "uint256",
          "name": "gasBudget",
          "type": "uint256"
        }
      ],
      "name": "updateWorkflow",
      "outputs": [],
      "stateMutability": "nonpayable",
      "type": "function"
    }
  ],
  "bytecode": "0x60806040523480156200001157600080fd5b5060405162001a8a38038062001a8a833981016040819052620000349162000136565b600180556200004560003362000095565b6001600160a01b038116156200008e576200006260008262000095565b6200008e7f43d5f2668bd1c7628e58e967bbd8b63f1feac3fe0c46b06ccf42fdd0dc6cc1508262000095565b5062000168565b6000828152602081815260408083206001600160a01b038516845290915290205460ff1662000132576000828152602081815260408083206001600160a01b03851684529091529020805460ff19166001179055620000f13390565b6001600160a01b0316816001600160a01b0316837f2f8788117e7eff1d82e926ec794901d17c78024a50270940304540a733656f0d60405160405180910390a45b5050565b6000602082840312156200014957600080fd5b81516001600160a01b03811681146200016157600080fd5b9392505050565b61191280620001786000396000f3fe608060405234801561001057600080fd5b50600436106101165760003560e01c8063a217fddf116100a2578063d820250511610071578063d820250514610263578063dd34b9c814610276578063eec7b03c14610289578063f28a80b6146102b1578063fcc496fb146102d857600080fd5b8063a217fddf14610215578063a60d59c71461021d578063b4e993881461023d578063d547741f1461025057600080fd5b80632f2ff15d116100e95780632f2ff15d146101c157806336568abe146101d4578063470b463c146101e757806391d14854146101fa578063972953b61461020d57600080fd5b806301ffc9a71461011b5780630813ce9614610143578063248a9ca31461015857806325fb3b2d14610189575b600080fd5b61012e6101293660046111fa565b6102eb565b60405190151581526020015b60405180910390f35b610156610151366004611224565b610322565b005b61017b610166366004611224565b60009081526020819052604090206001015490565b60405190815260200161013a565b61019c610197366004611224565b6103dc565b604080516001600160a01b03909416845291151560208401529082015260600161013a565b6101566101cf366004611259565b61043d565b6101566101e2366004611259565b610467565b61017b6101f53660046112df565b6104ea565b61012e610208366004611259565b61070c565b61017b610735565b61017b600081565b61023061022b36600461138b565b610745565b60405161013a91906113a6565b61015661024b366004611224565b6107b1565b61015661025e366004611259565b6108c9565b6101566102713660046113ea565b6108ee565b61015661028436600461140c565b6109b5565b61029c610297366004611224565b610a91565b60405161013a999897969594939291906114ed565b61017b7f43d5f2668bd1c7628e58e967bbd8b63f1feac3fe0c46b06ccf42fdd0dc6cc15081565b6101566102e6366004611562565b610c5b565b60006001600160e01b03198216637965db0b60e01b148061031c57506301ffc9a760e01b6001600160e01b03198316145b92915050565b61032a610d04565b600081815260036020526040902080546001600160a01b0316610360576040516337df4ab960e11b815260040160405180910390fd5b80546001600160a01b0316331461038a576040516330cd747160e01b815260040160405180910390fd5b600681015460ff16156103cf5760068101805460ff1916905560405182907fe0b00c447dcbf94bbc6376b9d59fc6d4df9cacab900106a33efaff616af9ccd890600090a25b506103d960018055565b50565b60008181526003602052604081208054829182916001600160a01b0316610416576040516337df4ab960e11b815260040160405180910390fd5b805460068201546004909201546001600160a01b039091169660ff90921695509350915050565b60008281526020819052604090206001015461045881610d5d565b6104628383610d67565b505050565b6001600160a01b03811633146104dc5760405162461bcd60e51b815260206004820152602f60248201527f416363657373436f6e74726f6c3a2063616e206f6e6c792072656e6f756e636560448201526e103937b632b9903337b91039b2b63360891b60648201526084015b60405180910390fd5b6104e68282610deb565b5050565b60006104f4610d04565b610502600280546001019055565b60025490506000604051806101200160405280336001600160a01b031681526020018c60ff1681526020018b8b8080601f01602080910402602001604051908101604052809392919081815260200183838082843760009201919091525050509082525060ff8a1660208083019190915260408051601f8b0183900483028101830182528a8152920191908a908a908190840183828082843760009201829052509385525050506020808301899052604080840189905260016060850181905260809094018890528683526003825291829020845181549286015160ff16600160a01b026001600160a81b03199093166001600160a01b0390911617919091178155908301519293508392909182019061061c908261163d565b50606082015160028201805460ff191660ff9092169190911790556080820151600382019061064b908261163d565b5060a0820151600482015560c0820151600582015560e082015160068201805491151560ff19909216919091179055610100909101516007909101556106c833836001600160a01b039091166000908152600460209081526040808320805460018101825581855283852001859055549383526005909152902055565b604051339083907f6ebf46b5e3b7890d724b64573ee28d4b1358a3439ba3f4ed9d4889b090b3999a90600090a3506106ff60018055565b9998505050505050505050565b6000918252602082815260408084206001600160a01b0393909316845291905290205460ff1690565b600061074060025490565b905090565b6001600160a01b0381166000908152600460209081526040918290208054835181840281018401909452808452606093928301828280156107a557602002820191906000526020600020905b815481526020019060010190808311610791575b50505050509050919050565b6107b9610d04565b600081815260036020526040902080546001600160a01b03166107ef576040516337df4ab960e11b815260040160405180910390fd5b80546001600160a01b03163314610819576040516330cd747160e01b815260040160405180910390fd5b805461082e906001600160a01b031683610e50565b600082815260036020526040812080546001600160a81b03191681559061085860018301826111ac565b60028201805460ff191690556108726003830160006111ac565b506000600482018190556005820181905560068201805460ff19169055600790910181905560405183917f96540bc378e04d4500b434a57b314f559af45c4a457abac726c601916d8dd8a591a2506103d960018055565b6000828152602081905260409020600101546108e481610d5d565b6104628383610deb565b6108f6610d04565b600082815260036020526040902080546001600160a01b031661092c576040516337df4ab960e11b815260040160405180910390fd5b80546001600160a01b03163314610956576040516330cd747160e01b815260040160405180910390fd5b600681015460ff166109ab5760068101805460ff19166001179055811561097f57600481018290555b60405183907ff9777a3853ed384d1ed462ecd8a0930375e3a4bbb8329a0a0af79a7ba6b5a2d990600090a25b506104e660018055565b6109bd610d04565b600088815260036020526040902080546001600160a01b03166109f3576040516337df4ab960e11b815260040160405180910390fd5b80546001600160a01b03163314610a1d576040516330cd747160e01b815260040160405180910390fd5b60018101610a2c888a836116fd565b5060038101610a3c8688836116fd565b5060048101849055600581018390556007810182905560405189907f77c7458811bb8f3b3c486af0afc0d64000519342786ccd995148bc71d591bece90600090a250610a8760018055565b5050505050505050565b6000818152600360205260408120805482916060918391839183918291829182916001600160a01b0316610ad8576040516337df4ab960e11b815260040160405180910390fd5b8054600282015460048301546005840154600685015460078601546001870180546001600160a01b0388169760ff600160a01b90910481169792969281169560038b019593949093909116918790610b2f906115b5565b80601f0160208091040260200160405190810160405280929190818152602001828054610b5b906115b5565b8015610ba85780601f10610b7d57610100808354040283529160200191610ba8565b820191906000526020600020905b815481529060010190602001808311610b8b57829003601f168201915b50505050509650848054610bbb906115b5565b80601f0160208091040260200160405190810160405280929190818152602001828054610be7906115b5565b8015610c345780601f10610c0957610100808354040283529160200191610c34565b820191906000526020600020905b815481529060010190602001808311610c1757829003601f168201915b50505050509450995099509950995099509950995099509950509193959799909294969850565b7f43d5f2668bd1c7628e58e967bbd8b63f1feac3fe0c46b06ccf42fdd0dc6cc150610c8581610d5d565b600084815260036020526040902080546001600160a01b0316610cbb576040516337df4ab960e11b815260040160405180910390fd5b60068101805460ff19168515151790556004810183905560405185907f77c7458811bb8f3b3c486af0afc0d64000519342786ccd995148bc71d591bece90600090a25050505050565b600260015403610d565760405162461bcd60e51b815260206004820152601f60248201527f5265656e7472616e637947756172643a207265656e7472616e742063616c6c0060448201526064016104d3565b6002600155565b6103d98133610f9e565b610d71828261070c565b6104e6576000828152602081815260408083206001600160a01b03851684529091529020805460ff19166001179055610da73390565b6001600160a01b0316816001600160a01b0316837f2f8788117e7eff1d82e926ec794901d17c78024a50270940304540a733656f0d60405160405180910390a45050565b610df5828261070c565b156104e6576000828152602081815260408083206001600160a01b0385168085529252808320805460ff1916905551339285917ff6391f5c32d9c69d2a47ea670b442974b53935d1edc7fd64eb21e047a839171b9190a45050565b60008181526005602052604081205490819003610e6c57505050565b6000610e796001836117d4565b6001600160a01b03851660009081526004602052604081205491925090610ea2906001906117d4565b9050808214610f41576001600160a01b0385166000908152600460205260408120805483908110610ed557610ed56117e7565b906000526020600020015490508060046000886001600160a01b03166001600160a01b031681526020019081526020016000208481548110610f1957610f196117e7565b600091825260209091200155610f308360016117fd565b600091825260056020526040909120555b6001600160a01b0385166000908152600460205260409020805480610f6857610f68611810565b60019003818190600052602060002001600090559055600060056000868152602001908152602001600020819055505050505050565b610fa8828261070c565b6104e657610fb581610ff7565b610fc0836020611009565b604051602001610fd1929190611826565b60408051601f198184030181529082905262461bcd60e51b82526104d39160040161189b565b606061031c6001600160a01b03831660145b606060006110188360026118ae565b6110239060026117fd565b67ffffffffffffffff81111561103b5761103b61159f565b6040519080825280601f01601f191660200182016040528015611065576020820181803683370190505b509050600360fc1b81600081518110611080576110806117e7565b60200101906001600160f81b031916908160001a905350600f60fb1b816001815181106110af576110af6117e7565b60200101906001600160f81b031916908160001a90535060006110d38460026118ae565b6110de9060016117fd565b90505b6001811115611156576f181899199a1a9b1b9c1cb0b131b232b360811b85600f1660108110611112576111126117e7565b1a60f81b828281518110611128576111286117e7565b60200101906001600160f81b031916908160001a90535060049490941c9361114f816118c5565b90506110e1565b5083156111a55760405162461bcd60e51b815260206004820181905260248201527f537472696e67733a20686578206c656e67746820696e73756666696369656e7460448201526064016104d3565b9392505050565b5080546111b8906115b5565b6000825580601f106111c8575050565b601f0160209004906000526020600020908101906103d991905b808211156111f657600081556001016111e2565b5090565b60006020828403121561120c57600080fd5b81356001600160e01b0319811681146111a557600080fd5b60006020828403121561123657600080fd5b5035919050565b80356001600160a01b038116811461125457600080fd5b919050565b6000806040838503121561126c57600080fd5b8235915061127c6020840161123d565b90509250929050565b803560ff8116811461125457600080fd5b60008083601f8401126112a857600080fd5b50813567ffffffffffffffff8111156112c057600080fd5b6020830191508360208285010111156112d857600080fd5b9250929050565b600080600080600080600080600060e08a8c0312156112fd57600080fd5b6113068a611285565b985060208a013567ffffffffffffffff8082111561132357600080fd5b61132f8d838e01611296565b909a50985088915061134360408d01611285565b975060608c013591508082111561135957600080fd5b506113668c828d01611296565b9a9d999c50979a9699979860808801359760a0810135975060c0013595509350505050565b60006020828403121561139d57600080fd5b6111a58261123d565b6020808252825182820181905260009190848201906040850190845b818110156113de578351835292840192918401916001016113c2565b50909695505050505050565b600080604083850312156113fd57600080fd5b50508035926020909101359150565b60008060008060008060008060c0898b03121561142857600080fd5b88359750602089013567ffffffffffffffff8082111561144757600080fd5b6114538c838d01611296565b909950975060408b013591508082111561146c57600080fd5b506114798b828c01611296565b999c989b5096999698976060880135976080810135975060a0013595509350505050565b60005b838110156114b85781810151838201526020016114a0565b50506000910152565b600081518084526114d981602086016020860161149d565b601f01601f19169290920160200192915050565b6001600160a01b038a16815260ff891660208201526101206040820181905260009061151b8382018b6114c1565b905060ff89166060840152828103608084015261153881896114c1565b60a0840197909752505060c081019390935290151560e08301526101009091015295945050505050565b60008060006060848603121561157757600080fd5b833592506020840135801515811461158e57600080fd5b929592945050506040919091013590565b634e487b7160e01b600052604160045260246000fd5b600181811c908216806115c957607f821691505b6020821081036115e957634e487b7160e01b600052602260045260246000fd5b50919050565b601f82111561046257600081815260208120601f850160051c810160208610156116165750805b601f850160051c820191505b8181101561163557828155600101611622565b505050505050565b815167ffffffffffffffff8111156116575761165761159f565b61166b8161166584546115b5565b846115ef565b602080601f8311600181146116a057600084156116885750858301515b600019600386901b1c1916600185901b178555611635565b600085815260208120601f198616915b828110156116cf578886015182559484019460019091019084016116b0565b50858210156116ed5787850151600019600388901b60f8161c191681555b5050505050600190811b01905550565b67ffffffffffffffff8311156117155761171561159f565b6117298361172383546115b5565b836115ef565b6000601f84116001811461175d57600085156117455750838201355b600019600387901b1c1916600186901b1783556117b7565b600083815260209020601f19861690835b8281101561178e578685013582556020948501946001909201910161176e565b50868210156117ab5760001960f88860031b161c19848701351681555b505060018560011b0183555b5050505050565b634e487b7160e01b600052601160045260246000fd5b8181038181111561031c5761031c6117be565b634e487b7160e01b600052603260045260246000fd5b8082018082111561031c5761031c6117be565b634e487b7160e01b600052603160045260246000fd5b7f416363657373436f6e74726f6c3a206163636f756e742000000000000000000081526000835161185e81601785016020880161149d565b7001034b99036b4b9b9b4b733903937b6329607d1b601791840191820152835161188f81602884016020880161149d565b01602801949350505050565b6020815260006111a560208301846114c1565b808202811582820484141761031c5761031c6117be565b6000816118d4576118d46117be565b50600019019056fea26469706673582212201e61a63e9d3e7f0024feccc58183e848012851b0a763daabb84050b1348b8a6164736f6c63430008130033",
  "linkReferences": {},
  "deployedLinkReferences": {}
}